{
  "_format": "hh-sol-artifact-1",
  "contractName": "Marketplace",
  "sourceName": "contracts/Marketplace.sol",
  "abi": [
    {
      "inputs": [],
      "stateMutability": "nonpayable",
      "type": "constructor"
    },
    {
      "anonymous": false,
      "inputs": [
        {
          "indexed": true,
          "internalType": "address",
          "name": "owner",
          "type": "address"
        },
        {
          "indexed": true,
          "internalType": "address",
          "name": "approved",
          "type": "address"
        },
        {
          "indexed": true,
          "internalType": "uint256",
          "name": "tokenId",
          "type": "uint256"
        }
      ],
      "name": "Approval",
      "type": "event"
    },
    {
      "anonymous": false,
      "inputs": [
        {
          "indexed": true,
          "internalType": "address",
          "name": "owner",
          "type": "address"
        },
        {
          "indexed": true,
          "internalType": "address",
          "name": "operator",
          "type": "address"
        },
        {
          "indexed": false,
          "internalType": "bool",
          "name": "approved",
          "type": "bool"
        }
      ],
      "name": "ApprovalForAll",
      "type": "event"
    },
    {
      "anonymous": false,
      "inputs": [
        {
          "indexed": true,
          "internalType": "address",
          "name": "newRoyaltyRecipient",
          "type": "address"
        },
        {
          "indexed": false,
          "internalType": "uint256",
          "name": "newRoyaltyBps",
          "type": "uint256"
        }
      ],
      "name": "DefaultRoyalty",
      "type": "event"
    },
    {
      "anonymous": false,
      "inputs": [
        {
          "indexed": true,
          "internalType": "uint256",
          "name": "tokenId",
          "type": "uint256"
        },
        {
          "indexed": false,
          "internalType": "address",
          "name": "seller",
          "type": "address"
        },
        {
          "indexed": false,
          "internalType": "address",
          "name": "owner",
          "type": "address"
        },
        {
          "indexed": false,
          "internalType": "uint256",
          "name": "price",
          "type": "uint256"
        },
        {
          "indexed": false,
          "internalType": "bool",
          "name": "sold",
          "type": "bool"
        },
        {
          "indexed": false,
          "internalType": "bool",
          "name": "isPresale",
          "type": "bool"
        }
      ],
      "name": "MarketItemCreated",
      "type": "event"
    },
    {
      "anonymous": false,
      "inputs": [
        {
          "indexed": true,
          "internalType": "bytes32",
          "name": "role",
          "type": "bytes32"
        },
        {
          "indexed": true,
          "internalType": "bytes32",
          "name": "previousAdminRole",
          "type": "bytes32"
        },
        {
          "indexed": true,
          "internalType": "bytes32",
          "name": "newAdminRole",
          "type": "bytes32"
        }
      ],
      "name": "RoleAdminChanged",
      "type": "event"
    },
    {
      "anonymous": false,
      "inputs": [
        {
          "indexed": true,
          "internalType": "bytes32",
          "name": "role",
          "type": "bytes32"
        },
        {
          "indexed": true,
          "internalType": "address",
          "name": "account",
          "type": "address"
        },
        {
          "indexed": true,
          "internalType": "address",
          "name": "sender",
          "type": "address"
        }
      ],
      "name": "RoleGranted",
      "type": "event"
    },
    {
      "anonymous": false,
      "inputs": [
        {
          "indexed": true,
          "internalType": "bytes32",
          "name": "role",
          "type": "bytes32"
        },
        {
          "indexed": true,
          "internalType": "address",
          "name": "account",
          "type": "address"
        },
        {
          "indexed": true,
          "internalType": "address",
          "name": "sender",
          "type": "address"
        }
      ],
      "name": "RoleRevoked",
      "type": "event"
    },
    {
      "anonymous": false,
      "inputs": [
        {
          "indexed": true,
          "internalType": "uint256",
          "name": "tokenId",
          "type": "uint256"
        },
        {
          "indexed": true,
          "internalType": "address",
          "name": "royaltyRecipient",
          "type": "address"
        },
        {
          "indexed": false,
          "internalType": "uint256",
          "name": "royaltyBps",
          "type": "uint256"
        }
      ],
      "name": "RoyaltyForToken",
      "type": "event"
    },
    {
      "anonymous": false,
      "inputs": [
        {
          "indexed": true,
          "internalType": "address",
          "name": "from",
          "type": "address"
        },
        {
          "indexed": true,
          "internalType": "address",
          "name": "to",
          "type": "address"
        },
        {
          "indexed": true,
          "internalType": "uint256",
          "name": "tokenId",
          "type": "uint256"
        }
      ],
      "name": "Transfer",
      "type": "event"
    },
    {
      "inputs": [],
      "name": "DEFAULT_ADMIN_ROLE",
      "outputs": [
        {
          "internalType": "bytes32",
          "name": "",
          "type": "bytes32"
        }
      ],
      "stateMutability": "view",
      "type": "function"
    },
    {
      "inputs": [],
      "name": "GetDefaultMaxAllowedPreSaleMint",
      "outputs": [
        {
          "internalType": "uint256",
          "name": "",
          "type": "uint256"
        }
      ],
      "stateMutability": "view",
      "type": "function"
    },
    {
      "inputs": [],
      "name": "MINTER_ROLE",
      "outputs": [
        {
          "internalType": "bytes32",
          "name": "",
          "type": "bytes32"
        }
      ],
      "stateMutability": "view",
      "type": "function"
    },
    {
      "inputs": [],
      "name": "SUPRE_ROLE",
      "outputs": [
        {
          "internalType": "bytes32",
          "name": "",
          "type": "bytes32"
        }
      ],
      "stateMutability": "view",
      "type": "function"
    },
    {
      "inputs": [
        {
          "internalType": "uint256",
          "name": "_maxAllowedPreSaleMint",
          "type": "uint256"
        }
      ],
      "name": "SetDefaultMaxAllowedPreSaleMint",
      "outputs": [],
      "stateMutability": "nonpayable",
      "type": "function"
    },
    {
      "inputs": [
        {
          "internalType": "uint256",
          "name": "_openingTime",
          "type": "uint256"
        },
        {
          "internalType": "uint256",
          "name": "_closingTime",
          "type": "uint256"
        },
        {
          "internalType": "uint256",
          "name": "_lockedPerdiod",
          "type": "uint256"
        }
      ],
      "name": "TimedCrowdsale",
      "outputs": [],
      "stateMutability": "nonpayable",
      "type": "function"
    },
    {
      "inputs": [
        {
          "internalType": "address",
          "name": "to",
          "type": "address"
        },
        {
          "internalType": "uint256",
          "name": "tokenId",
          "type": "uint256"
        }
      ],
      "name": "approve",
      "outputs": [],
      "stateMutability": "nonpayable",
      "type": "function"
    },
    {
      "inputs": [
        {
          "internalType": "address",
          "name": "owner",
          "type": "address"
        }
      ],
      "name": "balanceOf",
      "outputs": [
        {
          "internalType": "uint256",
          "name": "",
          "type": "uint256"
        }
      ],
      "stateMutability": "view",
      "type": "function"
    },
    {
      "inputs": [],
      "name": "checkStage",
      "outputs": [
        {
          "internalType": "enum Marketplace.Stage",
          "name": "stage",
          "type": "uint8"
        }
      ],
      "stateMutability": "view",
      "type": "function"
    },
    {
      "inputs": [
        {
          "internalType": "uint256",
          "name": "tokenId",
          "type": "uint256"
        }
      ],
      "name": "createMarketSale",
      "outputs": [],
      "stateMutability": "payable",
      "type": "function"
    },
    {
      "inputs": [
        {
          "internalType": "string",
          "name": "tokenURI",
          "type": "string"
        },
        {
          "internalType": "uint256",
          "name": "price",
          "type": "uint256"
        },
        {
          "internalType": "bool",
          "name": "_isPresale",
          "type": "bool"
        }
      ],
      "name": "createToken",
      "outputs": [
        {
          "internalType": "uint256",
          "name": "",
          "type": "uint256"
        }
      ],
      "stateMutability": "nonpayable",
      "type": "function"
    },
    {
      "inputs": [],
      "name": "fetchItemsListed",
      "outputs": [
        {
          "components": [
            {
              "internalType": "uint256",
              "name": "tokenId",
              "type": "uint256"
            },
            {
              "internalType": "address payable",
              "name": "seller",
              "type": "address"
            },
            {
              "internalType": "address payable",
              "name": "owner",
              "type": "address"
            },
            {
              "internalType": "uint256",
              "name": "price",
              "type": "uint256"
            },
            {
              "internalType": "bool",
              "name": "sold",
              "type": "bool"
            },
            {
              "internalType": "bool",
              "name": "isPresale",
              "type": "bool"
            }
          ],
          "internalType": "struct Marketplace.MarketItem[]",
          "name": "",
          "type": "tuple[]"
        }
      ],
      "stateMutability": "view",
      "type": "function"
    },
    {
      "inputs": [],
      "name": "fetchMarketItems",
      "outputs": [
        {
          "components": [
            {
              "internalType": "uint256",
              "name": "tokenId",
              "type": "uint256"
            },
            {
              "internalType": "address payable",
              "name": "seller",
              "type": "address"
            },
            {
              "internalType": "address payable",
              "name": "owner",
              "type": "address"
            },
            {
              "internalType": "uint256",
              "name": "price",
              "type": "uint256"
            },
            {
              "internalType": "bool",
              "name": "sold",
              "type": "bool"
            },
            {
              "internalType": "bool",
              "name": "isPresale",
              "type": "bool"
            }
          ],
          "internalType": "struct Marketplace.MarketItem[]",
          "name": "",
          "type": "tuple[]"
        }
      ],
      "stateMutability": "view",
      "type": "function"
    },
    {
      "inputs": [],
      "name": "fetchMyNFTs",
      "outputs": [
        {
          "components": [
            {
              "internalType": "uint256",
              "name": "tokenId",
              "type": "uint256"
            },
            {
              "internalType": "address payable",
              "name": "seller",
              "type": "address"
            },
            {
              "internalType": "address payable",
              "name": "owner",
              "type": "address"
            },
            {
              "internalType": "uint256",
              "name": "price",
              "type": "uint256"
            },
            {
              "internalType": "bool",
              "name": "sold",
              "type": "bool"
            },
            {
              "internalType": "bool",
              "name": "isPresale",
              "type": "bool"
            }
          ],
          "internalType": "struct Marketplace.MarketItem[]",
          "name": "",
          "type": "tuple[]"
        }
      ],
      "stateMutability": "view",
      "type": "function"
    },
    {
      "inputs": [
        {
          "internalType": "uint256",
          "name": "tokenId",
          "type": "uint256"
        }
      ],
      "name": "getApproved",
      "outputs": [
        {
          "internalType": "address",
          "name": "",
          "type": "address"
        }
      ],
      "stateMutability": "view",
      "type": "function"
    },
    {
      "inputs": [
        {
          "internalType": "bytes32",
          "name": "role",
          "type": "bytes32"
        }
      ],
      "name": "getRoleAdmin",
      "outputs": [
        {
          "internalType": "bytes32",
          "name": "",
          "type": "bytes32"
        }
      ],
      "stateMutability": "view",
      "type": "function"
    },
    {
      "inputs": [
        {
          "internalType": "uint256",
          "name": "_tokenId",
          "type": "uint256"
        }
      ],
      "name": "getRoyaltyInfoForToken",
      "outputs": [
        {
          "internalType": "address",
          "name": "",
          "type": "address"
        },
        {
          "internalType": "uint16",
          "name": "",
          "type": "uint16"
        }
      ],
      "stateMutability": "view",
      "type": "function"
    },
    {
      "inputs": [
        {
          "internalType": "bytes32",
          "name": "role",
          "type": "bytes32"
        },
        {
          "internalType": "address",
          "name": "account",
          "type": "address"
        }
      ],
      "name": "grantRole",
      "outputs": [],
      "stateMutability": "nonpayable",
      "type": "function"
    },
    {
      "inputs": [
        {
          "internalType": "bytes32",
          "name": "role",
          "type": "bytes32"
        },
        {
          "internalType": "address",
          "name": "account",
          "type": "address"
        }
      ],
      "name": "hasRole",
      "outputs": [
        {
          "internalType": "bool",
          "name": "",
          "type": "bool"
        }
      ],
      "stateMutability": "view",
      "type": "function"
    },
    {
      "inputs": [
        {
          "internalType": "address",
          "name": "addr",
          "type": "address"
        }
      ],
      "name": "isAllowedForPresale",
      "outputs": [
        {
          "internalType": "bool",
          "name": "",
          "type": "bool"
        }
      ],
      "stateMutability": "view",
      "type": "function"
    },
    {
      "inputs": [
        {
          "internalType": "address",
          "name": "owner",
          "type": "address"
        },
        {
          "internalType": "address",
          "name": "operator",
          "type": "address"
        }
      ],
      "name": "isApprovedForAll",
      "outputs": [
        {
          "internalType": "bool",
          "name": "",
          "type": "bool"
        }
      ],
      "stateMutability": "view",
      "type": "function"
    },
    {
      "inputs": [],
      "name": "lockPerdiod",
      "outputs": [
        {
          "internalType": "uint256",
          "name": "",
          "type": "uint256"
        }
      ],
      "stateMutability": "view",
      "type": "function"
    },
    {
      "inputs": [],
      "name": "name",
      "outputs": [
        {
          "internalType": "string",
          "name": "",
          "type": "string"
        }
      ],
      "stateMutability": "view",
      "type": "function"
    },
    {
      "inputs": [
        {
          "internalType": "uint256",
          "name": "tokenId",
          "type": "uint256"
        }
      ],
      "name": "ownerOf",
      "outputs": [
        {
          "internalType": "address",
          "name": "",
          "type": "address"
        }
      ],
      "stateMutability": "view",
      "type": "function"
    },
    {
      "inputs": [],
      "name": "presaleClosingTime",
      "outputs": [
        {
          "internalType": "uint256",
          "name": "",
          "type": "uint256"
        }
      ],
      "stateMutability": "view",
      "type": "function"
    },
    {
      "inputs": [],
      "name": "presaleOpeningTime",
      "outputs": [
        {
          "internalType": "uint256",
          "name": "",
          "type": "uint256"
        }
      ],
      "stateMutability": "view",
      "type": "function"
    },
    {
      "inputs": [
        {
          "internalType": "bytes32",
          "name": "role",
          "type": "bytes32"
        },
        {
          "internalType": "address",
          "name": "account",
          "type": "address"
        }
      ],
      "name": "renounceRole",
      "outputs": [],
      "stateMutability": "nonpayable",
      "type": "function"
    },
    {
      "inputs": [
        {
          "internalType": "uint256",
          "name": "tokenId",
          "type": "uint256"
        },
        {
          "internalType": "uint256",
          "name": "price",
          "type": "uint256"
        }
      ],
      "name": "resellToken",
      "outputs": [],
      "stateMutability": "nonpayable",
      "type": "function"
    },
    {
      "inputs": [
        {
          "internalType": "bytes32",
          "name": "role",
          "type": "bytes32"
        },
        {
          "internalType": "address",
          "name": "account",
          "type": "address"
        }
      ],
      "name": "revokeRole",
      "outputs": [],
      "stateMutability": "nonpayable",
      "type": "function"
    },
    {
      "inputs": [
        {
          "internalType": "uint256",
          "name": "tokenId",
          "type": "uint256"
        },
        {
          "internalType": "uint256",
          "name": "salePrice",
          "type": "uint256"
        }
      ],
      "name": "royaltyInfo",
      "outputs": [
        {
          "internalType": "address",
          "name": "receiver",
          "type": "address"
        },
        {
          "internalType": "uint256",
          "name": "royaltyAmount",
          "type": "uint256"
        }
      ],
      "stateMutability": "view",
      "type": "function"
    },
    {
      "inputs": [
        {
          "internalType": "address",
          "name": "from",
          "type": "address"
        },
        {
          "internalType": "address",
          "name": "to",
          "type": "address"
        },
        {
          "internalType": "uint256",
          "name": "tokenId",
          "type": "uint256"
        }
      ],
      "name": "safeTransferFrom",
      "outputs": [],
      "stateMutability": "nonpayable",
      "type": "function"
    },
    {
      "inputs": [
        {
          "internalType": "address",
          "name": "from",
          "type": "address"
        },
        {
          "internalType": "address",
          "name": "to",
          "type": "address"
        },
        {
          "internalType": "uint256",
          "name": "tokenId",
          "type": "uint256"
        },
        {
          "internalType": "bytes",
          "name": "data",
          "type": "bytes"
        }
      ],
      "name": "safeTransferFrom",
      "outputs": [],
      "stateMutability": "nonpayable",
      "type": "function"
    },
    {
      "inputs": [
        {
          "internalType": "address",
          "name": "operator",
          "type": "address"
        },
        {
          "internalType": "bool",
          "name": "approved",
          "type": "bool"
        }
      ],
      "name": "setApprovalForAll",
      "outputs": [],
      "stateMutability": "nonpayable",
      "type": "function"
    },
    {
      "inputs": [
        {
          "internalType": "address",
          "name": "_royaltyRecipient",
          "type": "address"
        },
        {
          "internalType": "uint256",
          "name": "_royaltyBps",
          "type": "uint256"
        }
      ],
      "name": "setDefaultRoyaltyInfo",
      "outputs": [],
      "stateMutability": "nonpayable",
      "type": "function"
    },
    {
      "inputs": [
        {
          "internalType": "address",
          "name": "addr",
          "type": "address"
        },
        {
          "internalType": "uint256",
          "name": "_maxAllowed",
          "type": "uint256"
        }
      ],
      "name": "setMaxAllowPerAddress",
      "outputs": [],
      "stateMutability": "nonpayable",
      "type": "function"
    },
    {
      "inputs": [
        {
          "internalType": "uint256",
          "name": "_tokenId",
          "type": "uint256"
        },
        {
          "internalType": "address",
          "name": "_recipient",
          "type": "address"
        },
        {
          "internalType": "uint96",
          "name": "_bps",
          "type": "uint96"
        }
      ],
      "name": "setRoyaltyInfoForToken",
      "outputs": [],
      "stateMutability": "nonpayable",
      "type": "function"
    },
    {
      "inputs": [
        {
          "internalType": "bytes4",
          "name": "interfaceId",
          "type": "bytes4"
        }
      ],
      "name": "supportsInterface",
      "outputs": [
        {
          "internalType": "bool",
          "name": "",
          "type": "bool"
        }
      ],
      "stateMutability": "view",
      "type": "function"
    },
    {
      "inputs": [],
      "name": "symbol",
      "outputs": [
        {
          "internalType": "string",
          "name": "",
          "type": "string"
        }
      ],
      "stateMutability": "view",
      "type": "function"
    },
    {
      "inputs": [
        {
          "internalType": "uint256",
          "name": "tokenId",
          "type": "uint256"
        }
      ],
      "name": "tokenURI",
      "outputs": [
        {
          "internalType": "string",
          "name": "",
          "type": "string"
        }
      ],
      "stateMutability": "view",
      "type": "function"
    },
    {
      "inputs": [
        {
          "internalType": "address",
          "name": "from",
          "type": "address"
        },
        {
          "internalType": "address",
          "name": "to",
          "type": "address"
        },
        {
          "internalType": "uint256",
          "name": "tokenId",
          "type": "uint256"
        }
      ],
      "name": "transferFrom",
      "outputs": [],
      "stateMutability": "nonpayable",
      "type": "function"
    },
    {
      "inputs": [
        {
          "internalType": "address[]",
          "name": "addrs",
          "type": "address[]"
        }
      ],
      "name": "whiteListBunchAddresses",
      "outputs": [],
      "stateMutability": "nonpayable",
      "type": "function"
    },
    {
      "inputs": [
        {
          "internalType": "address",
          "name": "addr",
          "type": "address"
        }
      ],
      "name": "whiteListeNewAddress",
      "outputs": [],
      "stateMutability": "nonpayable",
      "type": "function"
    }
  ],
  "bytecode": "0x60806040523480156200001157600080fd5b506040518060400160405280601081526020017f506978694d61726b657420546f6b656e000000000000000000000000000000008152506040518060400160405280600481526020017f50697869000000000000000000000000000000000000000000000000000000008152508160009080519060200190620000969291906200030c565b508060019080519060200190620000af9291906200030c565b50505033601160006101000a81548173ffffffffffffffffffffffffffffffffffffffff021916908373ffffffffffffffffffffffffffffffffffffffff16021790555060036012819055506200011f6000801b62000113620001a760201b60201c565b620001af60201b60201c565b620001607f8f3e3ec85be8136ab597ba63347c6a7b5ee4354f5c67cfa9fe9fc93392fd3b0d62000154620001a760201b60201c565b620001af60201b60201c565b620001a17f9f2df0fed2c77648de5860a4cc508cd0818c85b8b8a1ab4ceeef8d981c8956a662000195620001a760201b60201c565b620001af60201b60201c565b62000421565b600033905090565b620001c18282620002a160201b60201c565b6200029d5760016009600084815260200190815260200160002060000160008373ffffffffffffffffffffffffffffffffffffffff1673ffffffffffffffffffffffffffffffffffffffff16815260200190815260200160002060006101000a81548160ff02191690831515021790555062000242620001a760201b60201c565b73ffffffffffffffffffffffffffffffffffffffff168173ffffffffffffffffffffffffffffffffffffffff16837f2f8788117e7eff1d82e926ec794901d17c78024a50270940304540a733656f0d60405160405180910390a45b5050565b60006009600084815260200190815260200160002060000160008373ffffffffffffffffffffffffffffffffffffffff1673ffffffffffffffffffffffffffffffffffffffff16815260200190815260200160002060009054906101000a900460ff16905092915050565b8280546200031a90620003eb565b90600052602060002090601f0160209004810192826200033e57600085556200038a565b82601f106200035957805160ff19168380011785556200038a565b828001600101855582156200038a579182015b82811115620003895782518255916020019190600101906200036c565b5b5090506200039991906200039d565b5090565b5b80821115620003b85760008160009055506001016200039e565b5090565b7f4e487b7100000000000000000000000000000000000000000000000000000000600052602260045260246000fd5b600060028204905060018216806200040457607f821691505b602082108114156200041b576200041a620003bc565b5b50919050565b615c5180620004316000396000f3fe6080604052600436106102505760003560e01c80636352211e11610139578063a913a57a116100b6578063d2467e111161007a578063d2467e11146108ec578063d539139314610917578063d547741f14610942578063e219fc751461096b578063e985e9c514610994578063fe97b82e146109d157610250565b8063a913a57a14610818578063aef32e5114610841578063b88d4fde1461086a578063be9af53614610893578063c87b56dd146108af57610250565b806395d89b41116100fd57806395d89b41146107315780639b4a4b1c1461075c5780639c89dc0b14610799578063a217fddf146107c4578063a22cb465146107ef57610250565b80636352211e1461062457806370a082311461066157806372cfea691461069e5780637f93c751146106c957806391d14854146106f457610250565b80632a55205a116101d257806336568abe1161019657806336568abe1461051757806342842e0e1461054057806345f8fa80146105695780634cc157df14610594578063600dd5ea146105d257806362b4281f146105fb57610250565b80632a55205a146104335780632cf9c186146104715780632f2ff15d1461049a5780632f7d1c8e146104c357806333ae49d7146104ee57610250565b8063095ea7b311610219578063095ea7b31461034e5780630f08efe014610377578063202e3740146103a257806323b872dd146103cd578063248a9ca3146103f657610250565b80626de4061461025557806301ffc9a71461027e57806306fdde03146102bb57806307f79d38146102e6578063081812fc14610311575b600080fd5b34801561026157600080fd5b5061027c60048036038101906102779190613f1d565b610a0e565b005b34801561028a57600080fd5b506102a560048036038101906102a09190613fa2565b610a26565b6040516102b29190613fea565b60405180910390f35b3480156102c757600080fd5b506102d0610a38565b6040516102dd919061409e565b60405180910390f35b3480156102f257600080fd5b506102fb610aca565b60405161030891906140cf565b60405180910390f35b34801561031d57600080fd5b5061033860048036038101906103339190613f1d565b610ad0565b604051610345919061412b565b60405180910390f35b34801561035a57600080fd5b5061037560048036038101906103709190614172565b610b16565b005b34801561038357600080fd5b5061038c610c2e565b604051610399919061431b565b60405180910390f35b3480156103ae57600080fd5b506103b7610eb2565b6040516103c4919061431b565b60405180910390f35b3480156103d957600080fd5b506103f460048036038101906103ef919061433d565b6111bb565b005b34801561040257600080fd5b5061041d600480360381019061041891906143c6565b61121b565b60405161042a9190614402565b60405180910390f35b34801561043f57600080fd5b5061045a6004803603810190610455919061441d565b61123b565b60405161046892919061445d565b60405180910390f35b34801561047d57600080fd5b50610498600480360381019061049391906144ca565b611279565b005b3480156104a657600080fd5b506104c160048036038101906104bc919061451d565b611418565b005b3480156104cf57600080fd5b506104d8611439565b6040516104e59190614402565b60405180910390f35b3480156104fa57600080fd5b506105156004803603810190610510919061455d565b61145d565b005b34801561052357600080fd5b5061053e6004803603810190610539919061451d565b611492565b005b34801561054c57600080fd5b506105676004803603810190610562919061433d565b611515565b005b34801561057557600080fd5b5061057e611535565b60405161058b919061431b565b60405180910390f35b3480156105a057600080fd5b506105bb60048036038101906105b69190613f1d565b61183e565b6040516105c99291906145cd565b60405180910390f35b3480156105de57600080fd5b506105f960048036038101906105f49190614172565b61198b565b005b34801561060757600080fd5b50610622600480360381019061061d9190614172565b611a79565b005b34801561063057600080fd5b5061064b60048036038101906106469190613f1d565b611acf565b604051610658919061412b565b60405180910390f35b34801561066d57600080fd5b50610688600480360381019061068391906145f6565b611b81565b60405161069591906140cf565b60405180910390f35b3480156106aa57600080fd5b506106b3611c39565b6040516106c091906140cf565b60405180910390f35b3480156106d557600080fd5b506106de611c3f565b6040516106eb919061469a565b60405180910390f35b34801561070057600080fd5b5061071b6004803603810190610716919061451d565b611cd4565b6040516107289190613fea565b60405180910390f35b34801561073d57600080fd5b50610746611d3f565b604051610753919061409e565b60405180910390f35b34801561076857600080fd5b50610783600480360381019061077e91906145f6565b611dd1565b6040516107909190613fea565b60405180910390f35b3480156107a557600080fd5b506107ae611e2d565b6040516107bb91906140cf565b60405180910390f35b3480156107d057600080fd5b506107d9611e37565b6040516107e69190614402565b60405180910390f35b3480156107fb57600080fd5b50610816600480360381019061081191906146e1565b611e3e565b005b34801561082457600080fd5b5061083f600480360381019061083a9190614869565b611e54565b005b34801561084d57600080fd5b50610868600480360381019061086391906145f6565b611eeb565b005b34801561087657600080fd5b50610891600480360381019061088c9190614967565b611f42565b005b6108ad60048036038101906108a89190613f1d565b611fa4565b005b3480156108bb57600080fd5b506108d660048036038101906108d19190613f1d565b6123b3565b6040516108e3919061409e565b60405180910390f35b3480156108f857600080fd5b506109016124c6565b60405161090e91906140cf565b60405180910390f35b34801561092357600080fd5b5061092c6124cc565b6040516109399190614402565b60405180910390f35b34801561094e57600080fd5b506109696004803603810190610964919061451d565b6124f0565b005b34801561097757600080fd5b50610992600480360381019061098d919061441d565b612511565b005b3480156109a057600080fd5b506109bb60048036038101906109b691906149ea565b6126f1565b6040516109c89190613fea565b60405180910390f35b3480156109dd57600080fd5b506109f860048036038101906109f39190614acb565b612785565b604051610a0591906140cf565b60405180910390f35b6000801b610a1b81612841565b816012819055505050565b6000610a3182612855565b9050919050565b606060008054610a4790614b69565b80601f0160208091040260200160405190810160405280929190818152602001828054610a7390614b69565b8015610ac05780601f10610a9557610100808354040283529160200191610ac0565b820191906000526020600020905b815481529060010190602001808311610aa357829003601f168201915b5050505050905090565b600c5481565b6000610adb826128cf565b6004600083815260200190815260200160002060009054906101000a900473ffffffffffffffffffffffffffffffffffffffff169050919050565b6000610b2182611acf565b90508073ffffffffffffffffffffffffffffffffffffffff168373ffffffffffffffffffffffffffffffffffffffff161415610b92576040517f08c379a0000000000000000000000000000000000000000000000000000000008152600401610b8990614c0d565b60405180910390fd5b8073ffffffffffffffffffffffffffffffffffffffff16610bb161291a565b73ffffffffffffffffffffffffffffffffffffffff161480610be05750610bdf81610bda61291a565b6126f1565b5b610c1f576040517f08c379a0000000000000000000000000000000000000000000000000000000008152600401610c1690614c9f565b60405180910390fd5b610c298383612922565b505050565b60606000610c3c600a6129db565b90506000610c4a600b6129db565b610c54600a6129db565b610c5e9190614cee565b90506000808267ffffffffffffffff811115610c7d57610c7c614726565b5b604051908082528060200260200182016040528015610cb657816020015b610ca3613dca565b815260200190600190039081610c9b5790505b50905060005b84811015610ea7573073ffffffffffffffffffffffffffffffffffffffff1660136000600184610cec9190614d22565b815260200190815260200160002060020160009054906101000a900473ffffffffffffffffffffffffffffffffffffffff1673ffffffffffffffffffffffffffffffffffffffff161415610e94576000600182610d499190614d22565b90506000601360008381526020019081526020016000209050806040518060c0016040529081600082015481526020016001820160009054906101000a900473ffffffffffffffffffffffffffffffffffffffff1673ffffffffffffffffffffffffffffffffffffffff1673ffffffffffffffffffffffffffffffffffffffff1681526020016002820160009054906101000a900473ffffffffffffffffffffffffffffffffffffffff1673ffffffffffffffffffffffffffffffffffffffff1673ffffffffffffffffffffffffffffffffffffffff168152602001600382015481526020016004820160009054906101000a900460ff161515151581526020016004820160019054906101000a900460ff161515151581525050848681518110610e7757610e76614d78565b5b6020026020010181905250600185610e8f9190614d22565b945050505b8080610e9f90614da7565b915050610cbc565b508094505050505090565b60606000610ec0600a6129db565b905060008060005b83811015610f69573373ffffffffffffffffffffffffffffffffffffffff1660136000600184610ef89190614d22565b815260200190815260200160002060020160009054906101000a900473ffffffffffffffffffffffffffffffffffffffff1673ffffffffffffffffffffffffffffffffffffffff161415610f5657600183610f539190614d22565b92505b8080610f6190614da7565b915050610ec8565b5060008267ffffffffffffffff811115610f8657610f85614726565b5b604051908082528060200260200182016040528015610fbf57816020015b610fac613dca565b815260200190600190039081610fa45790505b50905060005b848110156111b0573373ffffffffffffffffffffffffffffffffffffffff1660136000600184610ff59190614d22565b815260200190815260200160002060020160009054906101000a900473ffffffffffffffffffffffffffffffffffffffff1673ffffffffffffffffffffffffffffffffffffffff16141561119d5760006001826110529190614d22565b90506000601360008381526020019081526020016000209050806040518060c0016040529081600082015481526020016001820160009054906101000a900473ffffffffffffffffffffffffffffffffffffffff1673ffffffffffffffffffffffffffffffffffffffff1673ffffffffffffffffffffffffffffffffffffffff1681526020016002820160009054906101000a900473ffffffffffffffffffffffffffffffffffffffff1673ffffffffffffffffffffffffffffffffffffffff1673ffffffffffffffffffffffffffffffffffffffff168152602001600382015481526020016004820160009054906101000a900460ff161515151581526020016004820160019054906101000a900460ff1615151515815250508486815181106111805761117f614d78565b5b60200260200101819052506001856111989190614d22565b945050505b80806111a890614da7565b915050610fc5565b508094505050505090565b6111cc6111c661291a565b826129e9565b61120b576040517f08c379a000000000000000000000000000000000000000000000000000000000815260040161120290614e62565b60405180910390fd5b611216838383612a7e565b505050565b600060096000838152602001908152602001600020600101549050919050565b60008060008061124a8661183e565b61ffff169150915081935061271081866112649190614e82565b61126e9190614f0b565b925050509250929050565b7f8f3e3ec85be8136ab597ba63347c6a7b5ee4354f5c67cfa9fe9fc93392fd3b0d6112a381612841565b612710826bffffffffffffffffffffffff1611156112f6576040517f08c379a00000000000000000000000000000000000000000000000000000000081526004016112ed90614f88565b60405180910390fd5b60405180604001604052808473ffffffffffffffffffffffffffffffffffffffff168152602001836bffffffffffffffffffffffff168152506014600086815260200190815260200160002060008201518160000160006101000a81548173ffffffffffffffffffffffffffffffffffffffff021916908373ffffffffffffffffffffffffffffffffffffffff16021790555060208201518160000160146101000a8154816bffffffffffffffffffffffff02191690836bffffffffffffffffffffffff1602179055509050508273ffffffffffffffffffffffffffffffffffffffff16847f7365cf4122f072a3365c20d54eff9b38d73c096c28e1892ec8f5b0e403a0f12d8460405161140a9190614fe3565b60405180910390a350505050565b6114218261121b565b61142a81612841565b6114348383612ce5565b505050565b7f8f3e3ec85be8136ab597ba63347c6a7b5ee4354f5c67cfa9fe9fc93392fd3b0d81565b6000801b61146a81612841565b8383101561147757600080fd5b83600c8190555082600d8190555081600e8190555050505050565b61149a61291a565b73ffffffffffffffffffffffffffffffffffffffff168173ffffffffffffffffffffffffffffffffffffffff1614611507576040517f08c379a00000000000000000000000000000000000000000000000000000000081526004016114fe90615070565b60405180910390fd5b6115118282612dc6565b5050565b61153083838360405180602001604052806000815250611f42565b505050565b60606000611543600a6129db565b905060008060005b838110156115ec573373ffffffffffffffffffffffffffffffffffffffff166013600060018461157b9190614d22565b815260200190815260200160002060010160009054906101000a900473ffffffffffffffffffffffffffffffffffffffff1673ffffffffffffffffffffffffffffffffffffffff1614156115d9576001836115d69190614d22565b92505b80806115e490614da7565b91505061154b565b5060008267ffffffffffffffff81111561160957611608614726565b5b60405190808252806020026020018201604052801561164257816020015b61162f613dca565b8152602001906001900390816116275790505b50905060005b84811015611833573373ffffffffffffffffffffffffffffffffffffffff16601360006001846116789190614d22565b815260200190815260200160002060010160009054906101000a900473ffffffffffffffffffffffffffffffffffffffff1673ffffffffffffffffffffffffffffffffffffffff1614156118205760006001826116d59190614d22565b90506000601360008381526020019081526020016000209050806040518060c0016040529081600082015481526020016001820160009054906101000a900473ffffffffffffffffffffffffffffffffffffffff1673ffffffffffffffffffffffffffffffffffffffff1673ffffffffffffffffffffffffffffffffffffffff1681526020016002820160009054906101000a900473ffffffffffffffffffffffffffffffffffffffff1673ffffffffffffffffffffffffffffffffffffffff1673ffffffffffffffffffffffffffffffffffffffff168152602001600382015481526020016004820160009054906101000a900460ff161515151581526020016004820160019054906101000a900460ff16151515158152505084868151811061180357611802614d78565b5b602002602001018190525060018561181b9190614d22565b945050505b808061182b90614da7565b915050611648565b508094505050505090565b6000806000601460008581526020019081526020016000206040518060400160405290816000820160009054906101000a900473ffffffffffffffffffffffffffffffffffffffff1673ffffffffffffffffffffffffffffffffffffffff1673ffffffffffffffffffffffffffffffffffffffff1681526020016000820160149054906101000a90046bffffffffffffffffffffffff166bffffffffffffffffffffffff166bffffffffffffffffffffffff16815250509050600073ffffffffffffffffffffffffffffffffffffffff16816000015173ffffffffffffffffffffffffffffffffffffffff161461193e5780600001518160200151611981565b600f60009054906101000a900473ffffffffffffffffffffffffffffffffffffffff16601060009054906101000a90046fffffffffffffffffffffffffffffffff165b9250925050915091565b7f8f3e3ec85be8136ab597ba63347c6a7b5ee4354f5c67cfa9fe9fc93392fd3b0d6119b581612841565b6127108211156119fa576040517f08c379a00000000000000000000000000000000000000000000000000000000081526004016119f190614f88565b60405180910390fd5b82600f60006101000a81548173ffffffffffffffffffffffffffffffffffffffff021916908373ffffffffffffffffffffffffffffffffffffffff16021790555081601060006101000a8154816fffffffffffffffffffffffffffffffff02191690836fffffffffffffffffffffffffffffffff160217905550505050565b6000801b611a8681612841565b81601560008573ffffffffffffffffffffffffffffffffffffffff1673ffffffffffffffffffffffffffffffffffffffff16815260200190815260200160002081905550505050565b6000806002600084815260200190815260200160002060009054906101000a900473ffffffffffffffffffffffffffffffffffffffff169050600073ffffffffffffffffffffffffffffffffffffffff168173ffffffffffffffffffffffffffffffffffffffff161415611b78576040517f08c379a0000000000000000000000000000000000000000000000000000000008152600401611b6f906150dc565b60405180910390fd5b80915050919050565b60008073ffffffffffffffffffffffffffffffffffffffff168273ffffffffffffffffffffffffffffffffffffffff161415611bf2576040517f08c379a0000000000000000000000000000000000000000000000000000000008152600401611be99061516e565b60405180910390fd5b600360008373ffffffffffffffffffffffffffffffffffffffff1673ffffffffffffffffffffffffffffffffffffffff168152602001908152602001600020549050919050565b600d5481565b6000600c54421080611c6c5750600d5442118015611c6b5750600e54600d54611c689190614d22565b42105b5b15611c7a5760009050611cd1565b600c544210158015611c8e5750600d544211155b15611c9c5760019050611cd1565b600e54600d54611cac9190614d22565b4210158015611cbe57506000600d5414155b15611ccc5760029050611cd1565b600090505b90565b60006009600084815260200190815260200160002060000160008373ffffffffffffffffffffffffffffffffffffffff1673ffffffffffffffffffffffffffffffffffffffff16815260200190815260200160002060009054906101000a900460ff16905092915050565b606060018054611d4e90614b69565b80601f0160208091040260200160405190810160405280929190818152602001828054611d7a90614b69565b8015611dc75780601f10611d9c57610100808354040283529160200191611dc7565b820191906000526020600020905b815481529060010190602001808311611daa57829003601f168201915b5050505050905090565b600080601560008473ffffffffffffffffffffffffffffffffffffffff1673ffffffffffffffffffffffffffffffffffffffff168152602001908152602001600020541115611e235760019050611e28565b600090505b919050565b6000601254905090565b6000801b81565b611e50611e4961291a565b8383612ea8565b5050565b6000801b611e6181612841565b60008251905060005b81811015611ee55760125460156000868481518110611e8c57611e8b614d78565b5b602002602001015173ffffffffffffffffffffffffffffffffffffffff1673ffffffffffffffffffffffffffffffffffffffff168152602001908152602001600020819055508080611edd90614da7565b915050611e6a565b50505050565b6000801b611ef881612841565b601254601560008473ffffffffffffffffffffffffffffffffffffffff1673ffffffffffffffffffffffffffffffffffffffff168152602001908152602001600020819055505050565b611f53611f4d61291a565b836129e9565b611f92576040517f08c379a0000000000000000000000000000000000000000000000000000000008152600401611f8990614e62565b60405180910390fd5b611f9e84848484613015565b50505050565b80336000611fb0611c3f565b905060006013600085815260200190815260200160002060040160019054906101000a900460ff16905060006002811115611fee57611fed614623565b5b82600281111561200157612000614623565b5b1415612042576040517f08c379a000000000000000000000000000000000000000000000000000000000815260040161203990615200565b60405180910390fd5b6001600281111561205657612055614623565b5b82600281111561206957612068614623565b5b14156120ff5761207883611dd1565b6120b7576040517f08c379a00000000000000000000000000000000000000000000000000000000081526004016120ae9061526c565b60405180910390fd5b60011515811515146120fe576040517f08c379a00000000000000000000000000000000000000000000000000000000081526004016120f5906152d8565b60405180910390fd5b5b60028081111561211257612111614623565b5b82600281111561212557612124614623565b5b1415612173576000151581151514612172576040517f08c379a000000000000000000000000000000000000000000000000000000000815260040161216990615344565b60405180910390fd5b5b60006013600087815260200190815260200160002060030154905060006013600088815260200190815260200160002060010160009054906101000a900473ffffffffffffffffffffffffffffffffffffffff16905081341461220b576040517f08c379a0000000000000000000000000000000000000000000000000000000008152600401612202906153d6565b60405180910390fd5b336013600089815260200190815260200160002060020160006101000a81548173ffffffffffffffffffffffffffffffffffffffff021916908373ffffffffffffffffffffffffffffffffffffffff16021790555060016013600089815260200190815260200160002060040160006101000a81548160ff02191690831515021790555060006013600089815260200190815260200160002060010160006101000a81548173ffffffffffffffffffffffffffffffffffffffff021916908373ffffffffffffffffffffffffffffffffffffffff1602179055506122ef600b613071565b6000806122fc898561123b565b809350819250505061230f30338b612a7e565b8073ffffffffffffffffffffffffffffffffffffffff166108fc839081150290604051600060405180830381858888f19350505050158015612355573d6000803e3d6000fd5b508273ffffffffffffffffffffffffffffffffffffffff166108fc838661237c9190614cee565b9081150290604051600060405180830381858888f193505050501580156123a7573d6000803e3d6000fd5b50505050505050505050565b60606123be826128cf565b60006006600084815260200190815260200160002080546123de90614b69565b80601f016020809104026020016040519081016040528092919081815260200182805461240a90614b69565b80156124575780601f1061242c57610100808354040283529160200191612457565b820191906000526020600020905b81548152906001019060200180831161243a57829003601f168201915b505050505090506000612468613087565b905060008151141561247e5781925050506124c1565b6000825111156124b357808260405160200161249b929190615432565b604051602081830303815290604052925050506124c1565b6124bc8461309e565b925050505b919050565b600e5481565b7f9f2df0fed2c77648de5860a4cc508cd0818c85b8b8a1ab4ceeef8d981c8956a681565b6124f98261121b565b61250281612841565b61250c8383612dc6565b505050565b3373ffffffffffffffffffffffffffffffffffffffff166013600084815260200190815260200160002060020160009054906101000a900473ffffffffffffffffffffffffffffffffffffffff1673ffffffffffffffffffffffffffffffffffffffff16146125b5576040517f08c379a00000000000000000000000000000000000000000000000000000000081526004016125ac906154c8565b60405180910390fd5b60006013600084815260200190815260200160002060040160006101000a81548160ff021916908315150217905550806013600084815260200190815260200160002060030181905550336013600084815260200190815260200160002060010160006101000a81548173ffffffffffffffffffffffffffffffffffffffff021916908373ffffffffffffffffffffffffffffffffffffffff160217905550306013600084815260200190815260200160002060020160006101000a81548173ffffffffffffffffffffffffffffffffffffffff021916908373ffffffffffffffffffffffffffffffffffffffff16021790555060006013600084815260200190815260200160002060040160016101000a81548160ff0219169083151502179055506126e2600b613106565b6126ed333084612a7e565b5050565b6000600560008473ffffffffffffffffffffffffffffffffffffffff1673ffffffffffffffffffffffffffffffffffffffff16815260200190815260200160002060008373ffffffffffffffffffffffffffffffffffffffff1673ffffffffffffffffffffffffffffffffffffffff16815260200190815260200160002060009054906101000a900460ff16905092915050565b60008180156127d357600d5442106127d2576040517f08c379a00000000000000000000000000000000000000000000000000000000081526004016127c990615344565b60405180910390fd5b5b7f9f2df0fed2c77648de5860a4cc508cd0818c85b8b8a1ab4ceeef8d981c8956a66127fd81612841565b612807600a613071565b6000612813600a6129db565b905061281f3382613162565b612829818861333c565b6128348187876133b0565b8093505050509392505050565b6128528161284d61291a565b61359a565b50565b60007f7965db0b000000000000000000000000000000000000000000000000000000007bffffffffffffffffffffffffffffffffffffffffffffffffffffffff1916827bffffffffffffffffffffffffffffffffffffffffffffffffffffffff191614806128c857506128c782613637565b5b9050919050565b6128d8816136b1565b612917576040517f08c379a000000000000000000000000000000000000000000000000000000000815260040161290e906150dc565b60405180910390fd5b50565b600033905090565b816004600083815260200190815260200160002060006101000a81548173ffffffffffffffffffffffffffffffffffffffff021916908373ffffffffffffffffffffffffffffffffffffffff160217905550808273ffffffffffffffffffffffffffffffffffffffff1661299583611acf565b73ffffffffffffffffffffffffffffffffffffffff167f8c5be1e5ebec7d5bd14f71427d1e84f3dd0314c0f7b2291e5b200ac8c7c3b92560405160405180910390a45050565b600081600001549050919050565b6000806129f583611acf565b90508073ffffffffffffffffffffffffffffffffffffffff168473ffffffffffffffffffffffffffffffffffffffff161480612a375750612a3681856126f1565b5b80612a7557508373ffffffffffffffffffffffffffffffffffffffff16612a5d84610ad0565b73ffffffffffffffffffffffffffffffffffffffff16145b91505092915050565b8273ffffffffffffffffffffffffffffffffffffffff16612a9e82611acf565b73ffffffffffffffffffffffffffffffffffffffff1614612af4576040517f08c379a0000000000000000000000000000000000000000000000000000000008152600401612aeb9061555a565b60405180910390fd5b600073ffffffffffffffffffffffffffffffffffffffff168273ffffffffffffffffffffffffffffffffffffffff161415612b64576040517f08c379a0000000000000000000000000000000000000000000000000000000008152600401612b5b906155ec565b60405180910390fd5b612b6f83838361371d565b612b7a600082612922565b6001600360008573ffffffffffffffffffffffffffffffffffffffff1673ffffffffffffffffffffffffffffffffffffffff1681526020019081526020016000206000828254612bca9190614cee565b925050819055506001600360008473ffffffffffffffffffffffffffffffffffffffff1673ffffffffffffffffffffffffffffffffffffffff1681526020019081526020016000206000828254612c219190614d22565b92505081905550816002600083815260200190815260200160002060006101000a81548173ffffffffffffffffffffffffffffffffffffffff021916908373ffffffffffffffffffffffffffffffffffffffff160217905550808273ffffffffffffffffffffffffffffffffffffffff168473ffffffffffffffffffffffffffffffffffffffff167fddf252ad1be2c89b69c2b068fc378daa952ba7f163c4a11628f55a4df523b3ef60405160405180910390a4612ce0838383613722565b505050565b612cef8282611cd4565b612dc25760016009600084815260200190815260200160002060000160008373ffffffffffffffffffffffffffffffffffffffff1673ffffffffffffffffffffffffffffffffffffffff16815260200190815260200160002060006101000a81548160ff021916908315150217905550612d6761291a565b73ffffffffffffffffffffffffffffffffffffffff168173ffffffffffffffffffffffffffffffffffffffff16837f2f8788117e7eff1d82e926ec794901d17c78024a50270940304540a733656f0d60405160405180910390a45b5050565b612dd08282611cd4565b15612ea45760006009600084815260200190815260200160002060000160008373ffffffffffffffffffffffffffffffffffffffff1673ffffffffffffffffffffffffffffffffffffffff16815260200190815260200160002060006101000a81548160ff021916908315150217905550612e4961291a565b73ffffffffffffffffffffffffffffffffffffffff168173ffffffffffffffffffffffffffffffffffffffff16837ff6391f5c32d9c69d2a47ea670b442974b53935d1edc7fd64eb21e047a839171b60405160405180910390a45b5050565b8173ffffffffffffffffffffffffffffffffffffffff168373ffffffffffffffffffffffffffffffffffffffff161415612f17576040517f08c379a0000000000000000000000000000000000000000000000000000000008152600401612f0e90615658565b60405180910390fd5b80600560008573ffffffffffffffffffffffffffffffffffffffff1673ffffffffffffffffffffffffffffffffffffffff16815260200190815260200160002060008473ffffffffffffffffffffffffffffffffffffffff1673ffffffffffffffffffffffffffffffffffffffff16815260200190815260200160002060006101000a81548160ff0219169083151502179055508173ffffffffffffffffffffffffffffffffffffffff168373ffffffffffffffffffffffffffffffffffffffff167f17307eab39ab6107e8899845ad3d59bd9653f200f220920489ca2b5937696c31836040516130089190613fea565b60405180910390a3505050565b613020848484612a7e565b61302c84848484613727565b61306b576040517f08c379a0000000000000000000000000000000000000000000000000000000008152600401613062906156ea565b60405180910390fd5b50505050565b6001816000016000828254019250508190555050565b606060405180602001604052806000815250905090565b60606130a9826128cf565b60006130b3613087565b905060008151116130d357604051806020016040528060008152506130fe565b806130dd846138be565b6040516020016130ee929190615432565b6040516020818303038152906040525b915050919050565b60008160000154905060008111613152576040517f08c379a000000000000000000000000000000000000000000000000000000000815260040161314990615756565b60405180910390fd5b6001810382600001819055505050565b600073ffffffffffffffffffffffffffffffffffffffff168273ffffffffffffffffffffffffffffffffffffffff1614156131d2576040517f08c379a00000000000000000000000000000000000000000000000000000000081526004016131c9906157c2565b60405180910390fd5b6131db816136b1565b1561321b576040517f08c379a00000000000000000000000000000000000000000000000000000000081526004016132129061582e565b60405180910390fd5b6132276000838361371d565b6001600360008473ffffffffffffffffffffffffffffffffffffffff1673ffffffffffffffffffffffffffffffffffffffff16815260200190815260200160002060008282546132779190614d22565b92505081905550816002600083815260200190815260200160002060006101000a81548173ffffffffffffffffffffffffffffffffffffffff021916908373ffffffffffffffffffffffffffffffffffffffff160217905550808273ffffffffffffffffffffffffffffffffffffffff16600073ffffffffffffffffffffffffffffffffffffffff167fddf252ad1be2c89b69c2b068fc378daa952ba7f163c4a11628f55a4df523b3ef60405160405180910390a461333860008383613722565b5050565b613345826136b1565b613384576040517f08c379a000000000000000000000000000000000000000000000000000000000815260040161337b906158c0565b60405180910390fd5b806006600084815260200190815260200160002090805190602001906133ab929190613e30565b505050565b600082116133f3576040517f08c379a00000000000000000000000000000000000000000000000000000000081526004016133ea9061592c565b60405180910390fd5b6040518060c001604052808481526020013373ffffffffffffffffffffffffffffffffffffffff1681526020013073ffffffffffffffffffffffffffffffffffffffff168152602001838152602001600015158152602001821515815250601360008581526020019081526020016000206000820151816000015560208201518160010160006101000a81548173ffffffffffffffffffffffffffffffffffffffff021916908373ffffffffffffffffffffffffffffffffffffffff16021790555060408201518160020160006101000a81548173ffffffffffffffffffffffffffffffffffffffff021916908373ffffffffffffffffffffffffffffffffffffffff1602179055506060820151816003015560808201518160040160006101000a81548160ff02191690831515021790555060a08201518160040160016101000a81548160ff021916908315150217905550905050613554333085612a7e565b827f538153ed6048ec0057b06893633e5c91bd15b5456c7598a4ad59ed40e506cb8d33308560008660405161358d95949392919061594c565b60405180910390a2505050565b6135a48282611cd4565b613633576135c98173ffffffffffffffffffffffffffffffffffffffff166014613a1f565b6135d78360001c6020613a1f565b6040516020016135e8929190615a37565b6040516020818303038152906040526040517f08c379a000000000000000000000000000000000000000000000000000000000815260040161362a919061409e565b60405180910390fd5b5050565b60007f2a55205a000000000000000000000000000000000000000000000000000000007bffffffffffffffffffffffffffffffffffffffffffffffffffffffff1916827bffffffffffffffffffffffffffffffffffffffffffffffffffffffff191614806136aa57506136a982613c5b565b5b9050919050565b60008073ffffffffffffffffffffffffffffffffffffffff166002600084815260200190815260200160002060009054906101000a900473ffffffffffffffffffffffffffffffffffffffff1673ffffffffffffffffffffffffffffffffffffffff1614159050919050565b505050565b505050565b60006137488473ffffffffffffffffffffffffffffffffffffffff16613d3d565b156138b1578373ffffffffffffffffffffffffffffffffffffffff1663150b7a0261377161291a565b8786866040518563ffffffff1660e01b81526004016137939493929190615ac6565b602060405180830381600087803b1580156137ad57600080fd5b505af19250505080156137de57506040513d601f19601f820116820180604052508101906137db9190615b27565b60015b613861573d806000811461380e576040519150601f19603f3d011682016040523d82523d6000602084013e613813565b606091505b50600081511415613859576040517f08c379a0000000000000000000000000000000000000000000000000000000008152600401613850906156ea565b60405180910390fd5b805181602001fd5b63150b7a0260e01b7bffffffffffffffffffffffffffffffffffffffffffffffffffffffff1916817bffffffffffffffffffffffffffffffffffffffffffffffffffffffff1916149150506138b6565b600190505b949350505050565b60606000821415613906576040518060400160405280600181526020017f30000000000000000000000000000000000000000000000000000000000000008152509050613a1a565b600082905060005b6000821461393857808061392190614da7565b915050600a826139319190614f0b565b915061390e565b60008167ffffffffffffffff81111561395457613953614726565b5b6040519080825280601f01601f1916602001820160405280156139865781602001600182028036833780820191505090505b5090505b60008514613a135760018261399f9190614cee565b9150600a856139ae9190615b54565b60306139ba9190614d22565b60f81b8183815181106139d0576139cf614d78565b5b60200101907effffffffffffffffffffffffffffffffffffffffffffffffffffffffffffff1916908160001a905350600a85613a0c9190614f0b565b945061398a565b8093505050505b919050565b606060006002836002613a329190614e82565b613a3c9190614d22565b67ffffffffffffffff811115613a5557613a54614726565b5b6040519080825280601f01601f191660200182016040528015613a875781602001600182028036833780820191505090505b5090507f300000000000000000000000000000000000000000000000000000000000000081600081518110613abf57613abe614d78565b5b60200101907effffffffffffffffffffffffffffffffffffffffffffffffffffffffffffff1916908160001a9053507f780000000000000000000000000000000000000000000000000000000000000081600181518110613b2357613b22614d78565b5b60200101907effffffffffffffffffffffffffffffffffffffffffffffffffffffffffffff1916908160001a90535060006001846002613b639190614e82565b613b6d9190614d22565b90505b6001811115613c0d577f3031323334353637383961626364656600000000000000000000000000000000600f861660108110613baf57613bae614d78565b5b1a60f81b828281518110613bc657613bc5614d78565b5b60200101907effffffffffffffffffffffffffffffffffffffffffffffffffffffffffffff1916908160001a905350600485901c945080613c0690615b85565b9050613b70565b5060008414613c51576040517f08c379a0000000000000000000000000000000000000000000000000000000008152600401613c4890615bfb565b60405180910390fd5b8091505092915050565b60007f80ac58cd000000000000000000000000000000000000000000000000000000007bffffffffffffffffffffffffffffffffffffffffffffffffffffffff1916827bffffffffffffffffffffffffffffffffffffffffffffffffffffffff19161480613d2657507f5b5e139f000000000000000000000000000000000000000000000000000000007bffffffffffffffffffffffffffffffffffffffffffffffffffffffff1916827bffffffffffffffffffffffffffffffffffffffffffffffffffffffff1916145b80613d365750613d3582613d60565b5b9050919050565b6000808273ffffffffffffffffffffffffffffffffffffffff163b119050919050565b60007f01ffc9a7000000000000000000000000000000000000000000000000000000007bffffffffffffffffffffffffffffffffffffffffffffffffffffffff1916827bffffffffffffffffffffffffffffffffffffffffffffffffffffffff1916149050919050565b6040518060c0016040528060008152602001600073ffffffffffffffffffffffffffffffffffffffff168152602001600073ffffffffffffffffffffffffffffffffffffffff168152602001600081526020016000151581526020016000151581525090565b828054613e3c90614b69565b90600052602060002090601f016020900481019282613e5e5760008555613ea5565b82601f10613e7757805160ff1916838001178555613ea5565b82800160010185558215613ea5579182015b82811115613ea4578251825591602001919060010190613e89565b5b509050613eb29190613eb6565b5090565b5b80821115613ecf576000816000905550600101613eb7565b5090565b6000604051905090565b600080fd5b600080fd5b6000819050919050565b613efa81613ee7565b8114613f0557600080fd5b50565b600081359050613f1781613ef1565b92915050565b600060208284031215613f3357613f32613edd565b5b6000613f4184828501613f08565b91505092915050565b60007fffffffff0000000000000000000000000000000000000000000000000000000082169050919050565b613f7f81613f4a565b8114613f8a57600080fd5b50565b600081359050613f9c81613f76565b92915050565b600060208284031215613fb857613fb7613edd565b5b6000613fc684828501613f8d565b91505092915050565b60008115159050919050565b613fe481613fcf565b82525050565b6000602082019050613fff6000830184613fdb565b92915050565b600081519050919050565b600082825260208201905092915050565b60005b8381101561403f578082015181840152602081019050614024565b8381111561404e576000848401525b50505050565b6000601f19601f8301169050919050565b600061407082614005565b61407a8185614010565b935061408a818560208601614021565b61409381614054565b840191505092915050565b600060208201905081810360008301526140b88184614065565b905092915050565b6140c981613ee7565b82525050565b60006020820190506140e460008301846140c0565b92915050565b600073ffffffffffffffffffffffffffffffffffffffff82169050919050565b6000614115826140ea565b9050919050565b6141258161410a565b82525050565b6000602082019050614140600083018461411c565b92915050565b61414f8161410a565b811461415a57600080fd5b50565b60008135905061416c81614146565b92915050565b6000806040838503121561418957614188613edd565b5b60006141978582860161415d565b92505060206141a885828601613f08565b9150509250929050565b600081519050919050565b600082825260208201905092915050565b6000819050602082019050919050565b6141e781613ee7565b82525050565b60006141f8826140ea565b9050919050565b614208816141ed565b82525050565b61421781613fcf565b82525050565b60c08201600082015161423360008501826141de565b50602082015161424660208501826141ff565b50604082015161425960408501826141ff565b50606082015161426c60608501826141de565b50608082015161427f608085018261420e565b5060a082015161429260a085018261420e565b50505050565b60006142a4838361421d565b60c08301905092915050565b6000602082019050919050565b60006142c8826141b2565b6142d281856141bd565b93506142dd836141ce565b8060005b8381101561430e5781516142f58882614298565b9750614300836142b0565b9250506001810190506142e1565b5085935050505092915050565b6000602082019050818103600083015261433581846142bd565b905092915050565b60008060006060848603121561435657614355613edd565b5b60006143648682870161415d565b93505060206143758682870161415d565b925050604061438686828701613f08565b9150509250925092565b6000819050919050565b6143a381614390565b81146143ae57600080fd5b50565b6000813590506143c08161439a565b92915050565b6000602082840312156143dc576143db613edd565b5b60006143ea848285016143b1565b91505092915050565b6143fc81614390565b82525050565b600060208201905061441760008301846143f3565b92915050565b6000806040838503121561443457614433613edd565b5b600061444285828601613f08565b925050602061445385828601613f08565b9150509250929050565b6000604082019050614472600083018561411c565b61447f60208301846140c0565b9392505050565b60006bffffffffffffffffffffffff82169050919050565b6144a781614486565b81146144b257600080fd5b50565b6000813590506144c48161449e565b92915050565b6000806000606084860312156144e3576144e2613edd565b5b60006144f186828701613f08565b93505060206145028682870161415d565b9250506040614513868287016144b5565b9150509250925092565b6000806040838503121561453457614533613edd565b5b6000614542858286016143b1565b92505060206145538582860161415d565b9150509250929050565b60008060006060848603121561457657614575613edd565b5b600061458486828701613f08565b935050602061459586828701613f08565b92505060406145a686828701613f08565b9150509250925092565b600061ffff82169050919050565b6145c7816145b0565b82525050565b60006040820190506145e2600083018561411c565b6145ef60208301846145be565b9392505050565b60006020828403121561460c5761460b613edd565b5b600061461a8482850161415d565b91505092915050565b7f4e487b7100000000000000000000000000000000000000000000000000000000600052602160045260246000fd5b6003811061466357614662614623565b5b50565b600081905061467482614652565b919050565b600061468482614666565b9050919050565b61469481614679565b82525050565b60006020820190506146af600083018461468b565b92915050565b6146be81613fcf565b81146146c957600080fd5b50565b6000813590506146db816146b5565b92915050565b600080604083850312156146f8576146f7613edd565b5b60006147068582860161415d565b9250506020614717858286016146cc565b9150509250929050565b600080fd5b7f4e487b7100000000000000000000000000000000000000000000000000000000600052604160045260246000fd5b61475e82614054565b810181811067ffffffffffffffff8211171561477d5761477c614726565b5b80604052505050565b6000614790613ed3565b905061479c8282614755565b919050565b600067ffffffffffffffff8211156147bc576147bb614726565b5b602082029050602081019050919050565b600080fd5b60006147e56147e0846147a1565b614786565b90508083825260208201905060208402830185811115614808576148076147cd565b5b835b81811015614831578061481d888261415d565b84526020840193505060208101905061480a565b5050509392505050565b600082601f8301126148505761484f614721565b5b81356148608482602086016147d2565b91505092915050565b60006020828403121561487f5761487e613edd565b5b600082013567ffffffffffffffff81111561489d5761489c613ee2565b5b6148a98482850161483b565b91505092915050565b600080fd5b600067ffffffffffffffff8211156148d2576148d1614726565b5b6148db82614054565b9050602081019050919050565b82818337600083830152505050565b600061490a614905846148b7565b614786565b905082815260208101848484011115614926576149256148b2565b5b6149318482856148e8565b509392505050565b600082601f83011261494e5761494d614721565b5b813561495e8482602086016148f7565b91505092915050565b6000806000806080858703121561498157614980613edd565b5b600061498f8782880161415d565b94505060206149a08782880161415d565b93505060406149b187828801613f08565b925050606085013567ffffffffffffffff8111156149d2576149d1613ee2565b5b6149de87828801614939565b91505092959194509250565b60008060408385031215614a0157614a00613edd565b5b6000614a0f8582860161415d565b9250506020614a208582860161415d565b9150509250929050565b600067ffffffffffffffff821115614a4557614a44614726565b5b614a4e82614054565b9050602081019050919050565b6000614a6e614a6984614a2a565b614786565b905082815260208101848484011115614a8a57614a896148b2565b5b614a958482856148e8565b509392505050565b600082601f830112614ab257614ab1614721565b5b8135614ac2848260208601614a5b565b91505092915050565b600080600060608486031215614ae457614ae3613edd565b5b600084013567ffffffffffffffff811115614b0257614b01613ee2565b5b614b0e86828701614a9d565b9350506020614b1f86828701613f08565b9250506040614b30868287016146cc565b9150509250925092565b7f4e487b7100000000000000000000000000000000000000000000000000000000600052602260045260246000fd5b60006002820490506001821680614b8157607f821691505b60208210811415614b9557614b94614b3a565b5b50919050565b7f4552433732313a20617070726f76616c20746f2063757272656e74206f776e6560008201527f7200000000000000000000000000000000000000000000000000000000000000602082015250565b6000614bf7602183614010565b9150614c0282614b9b565b604082019050919050565b60006020820190508181036000830152614c2681614bea565b9050919050565b7f4552433732313a20617070726f76652063616c6c6572206973206e6f7420746f60008201527f6b656e206f776e6572206e6f7220617070726f76656420666f7220616c6c0000602082015250565b6000614c89603e83614010565b9150614c9482614c2d565b604082019050919050565b60006020820190508181036000830152614cb881614c7c565b9050919050565b7f4e487b7100000000000000000000000000000000000000000000000000000000600052601160045260246000fd5b6000614cf982613ee7565b9150614d0483613ee7565b925082821015614d1757614d16614cbf565b5b828203905092915050565b6000614d2d82613ee7565b9150614d3883613ee7565b9250827fffffffffffffffffffffffffffffffffffffffffffffffffffffffffffffffff03821115614d6d57614d6c614cbf565b5b828201905092915050565b7f4e487b7100000000000000000000000000000000000000000000000000000000600052603260045260246000fd5b6000614db282613ee7565b91507fffffffffffffffffffffffffffffffffffffffffffffffffffffffffffffffff821415614de557614de4614cbf565b5b600182019050919050565b7f4552433732313a2063616c6c6572206973206e6f7420746f6b656e206f776e6560008201527f72206e6f7220617070726f766564000000000000000000000000000000000000602082015250565b6000614e4c602e83614010565b9150614e5782614df0565b604082019050919050565b60006020820190508181036000830152614e7b81614e3f565b9050919050565b6000614e8d82613ee7565b9150614e9883613ee7565b9250817fffffffffffffffffffffffffffffffffffffffffffffffffffffffffffffffff0483118215151615614ed157614ed0614cbf565b5b828202905092915050565b7f4e487b7100000000000000000000000000000000000000000000000000000000600052601260045260246000fd5b6000614f1682613ee7565b9150614f2183613ee7565b925082614f3157614f30614edc565b5b828204905092915050565b7f65786365656420726f79616c7479206270730000000000000000000000000000600082015250565b6000614f72601283614010565b9150614f7d82614f3c565b602082019050919050565b60006020820190508181036000830152614fa181614f65565b9050919050565b6000819050919050565b6000614fcd614fc8614fc384614486565b614fa8565b613ee7565b9050919050565b614fdd81614fb2565b82525050565b6000602082019050614ff86000830184614fd4565b92915050565b7f416363657373436f6e74726f6c3a2063616e206f6e6c792072656e6f756e636560008201527f20726f6c657320666f722073656c660000000000000000000000000000000000602082015250565b600061505a602f83614010565b915061506582614ffe565b604082019050919050565b600060208201905081810360008301526150898161504d565b9050919050565b7f4552433732313a20696e76616c696420746f6b656e2049440000000000000000600082015250565b60006150c6601883614010565b91506150d182615090565b602082019050919050565b600060208201905081810360008301526150f5816150b9565b9050919050565b7f4552433732313a2061646472657373207a65726f206973206e6f74206120766160008201527f6c6964206f776e65720000000000000000000000000000000000000000000000602082015250565b6000615158602983614010565b9150615163826150fc565b604082019050919050565b600060208201905081810360008301526151878161514b565b9050919050565b7f596f752063616e2774205472616465204e465420617420746865206d6f6d656e60008201527f742e000000000000000000000000000000000000000000000000000000000000602082015250565b60006151ea602283614010565b91506151f58261518e565b604082019050919050565b60006020820190508181036000830152615219816151dd565b9050919050565b7f4e6f742057686974656c69737465642100000000000000000000000000000000600082015250565b6000615256601083614010565b915061526182615220565b602082019050919050565b6000602082019050818103600083015261528581615249565b9050919050565b7f4e6f7420612050726573616c65204974656d2100000000000000000000000000600082015250565b60006152c2601383614010565b91506152cd8261528c565b602082019050919050565b600060208201905081810360008301526152f1816152b5565b9050919050565b7f50726573616c65206973206f7665722100000000000000000000000000000000600082015250565b600061532e601083614010565b9150615339826152f8565b602082019050919050565b6000602082019050818103600083015261535d81615321565b9050919050565b7f506c65617365207375626d6974207468652061736b696e67207072696365206960008201527f6e206f7264657220746f20636f6d706c65746520746865207075726368617365602082015250565b60006153c0604083614010565b91506153cb82615364565b604082019050919050565b600060208201905081810360008301526153ef816153b3565b9050919050565b600081905092915050565b600061540c82614005565b61541681856153f6565b9350615426818560208601614021565b80840191505092915050565b600061543e8285615401565b915061544a8284615401565b91508190509392505050565b7f4f6e6c79206974656d206f776e65722063616e20706572666f726d207468697360008201527f206f7065726174696f6e00000000000000000000000000000000000000000000602082015250565b60006154b2602a83614010565b91506154bd82615456565b604082019050919050565b600060208201905081810360008301526154e1816154a5565b9050919050565b7f4552433732313a207472616e736665722066726f6d20696e636f72726563742060008201527f6f776e6572000000000000000000000000000000000000000000000000000000602082015250565b6000615544602583614010565b915061554f826154e8565b604082019050919050565b6000602082019050818103600083015261557381615537565b9050919050565b7f4552433732313a207472616e7366657220746f20746865207a65726f2061646460008201527f7265737300000000000000000000000000000000000000000000000000000000602082015250565b60006155d6602483614010565b91506155e18261557a565b604082019050919050565b60006020820190508181036000830152615605816155c9565b9050919050565b7f4552433732313a20617070726f766520746f2063616c6c657200000000000000600082015250565b6000615642601983614010565b915061564d8261560c565b602082019050919050565b6000602082019050818103600083015261567181615635565b9050919050565b7f4552433732313a207472616e7366657220746f206e6f6e20455243373231526560008201527f63656976657220696d706c656d656e7465720000000000000000000000000000602082015250565b60006156d4603283614010565b91506156df82615678565b604082019050919050565b60006020820190508181036000830152615703816156c7565b9050919050565b7f436f756e7465723a2064656372656d656e74206f766572666c6f770000000000600082015250565b6000615740601b83614010565b915061574b8261570a565b602082019050919050565b6000602082019050818103600083015261576f81615733565b9050919050565b7f4552433732313a206d696e7420746f20746865207a65726f2061646472657373600082015250565b60006157ac602083614010565b91506157b782615776565b602082019050919050565b600060208201905081810360008301526157db8161579f565b9050919050565b7f4552433732313a20746f6b656e20616c7265616479206d696e74656400000000600082015250565b6000615818601c83614010565b9150615823826157e2565b602082019050919050565b600060208201905081810360008301526158478161580b565b9050919050565b7f45524337323155524953746f726167653a2055524920736574206f66206e6f6e60008201527f6578697374656e7420746f6b656e000000000000000000000000000000000000602082015250565b60006158aa602e83614010565b91506158b58261584e565b604082019050919050565b600060208201905081810360008301526158d98161589d565b9050919050565b7f5072696365206d757374206265206174206c6561737420312077656900000000600082015250565b6000615916601c83614010565b9150615921826158e0565b602082019050919050565b6000602082019050818103600083015261594581615909565b9050919050565b600060a082019050615961600083018861411c565b61596e602083018761411c565b61597b60408301866140c0565b6159886060830185613fdb565b6159956080830184613fdb565b9695505050505050565b7f416363657373436f6e74726f6c3a206163636f756e7420000000000000000000600082015250565b60006159d56017836153f6565b91506159e08261599f565b601782019050919050565b7f206973206d697373696e6720726f6c6520000000000000000000000000000000600082015250565b6000615a216011836153f6565b9150615a2c826159eb565b601182019050919050565b6000615a42826159c8565b9150615a4e8285615401565b9150615a5982615a14565b9150615a658284615401565b91508190509392505050565b600081519050919050565b600082825260208201905092915050565b6000615a9882615a71565b615aa28185615a7c565b9350615ab2818560208601614021565b615abb81614054565b840191505092915050565b6000608082019050615adb600083018761411c565b615ae8602083018661411c565b615af560408301856140c0565b8181036060830152615b078184615a8d565b905095945050505050565b600081519050615b2181613f76565b92915050565b600060208284031215615b3d57615b3c613edd565b5b6000615b4b84828501615b12565b91505092915050565b6000615b5f82613ee7565b9150615b6a83613ee7565b925082615b7a57615b79614edc565b5b828206905092915050565b6000615b9082613ee7565b91506000821415615ba457615ba3614cbf565b5b600182039050919050565b7f537472696e67733a20686578206c656e67746820696e73756666696369656e74600082015250565b6000615be5602083614010565b9150615bf082615baf565b602082019050919050565b60006020820190508181036000830152615c1481615bd8565b905091905056fea264697066735822122005c4aac49b94d626a6a5bb2a62a89bf499177762df2f3a4ee745cb14e2feea6e64736f6c63430008090033",
  "linkReferences": {},
  "deployedLinkReferences": {}
}